S00F000056656E64696E672E737265634A
S11300000C9434000C9449000C9449000C9449005D
S11300100C9449000C9449000C9449000C94490038
S11300200C9449000C9449000C9449000C94490028
S11300300C9449000C9449000C9449000C94490018
S11300400C9449000C9449000C9449000C94490008
S11300500C9449000C9449000C9449000C944900F8
S11300600C9449000C94490011241FBECFEFD8E032
S1130070DEBFCDBF11E0A0E0B1E0E2E4F3E002C0F6
S113008005900D92A832B107D9F70E9410010C9483
S11300909F010C9400009AB1906E9AB994B199633F
S11300A094B99BB19F7B9BB9662321F09BB1906867
S11300B09BB903C09BB19F779BB99BB190629BB9DD
S11300C095B1967C95B983FF03C095B1906295B9BB
S11300D082FF03C095B1906195B981FF03C095B1CA
S11300E0986095B980FF03C085B1816085B98AE1C4
S11300F08A95F1F700C08BB18F7D8BB90895CF93AA
S1130100DF93C82FD62F82958F700E944B006D2FDE
S11301108C2F0E944B00DF91CF9108958FE99FE0CF
S11301200197F1F700C0000080E008950E948E005E
S11301308111FCCF60E082E00E944B000E948E009F
S11301408111FCCF60E088E20E947F000E948E0053
S11301508111FCCF60E081E00E947F000E948E004C
S11301608111FCCF60E086E00E947F000E948E0037
S11301708111FCCF60E08CE00E947F000895CF9352
S1130180C82F0E948E008111FCCF60E08C2F8C6000
S11301900E947F00CF910895CF93C82F0E948E00B4
S11301A08111FCCF60E08C2F88600E947F00CF918A
S11301B008950E948E008111FCCF60E081E00E94CE
S11301C07F000895CF93DF93D82FC62F0E948E000F
S11301D08111FCCF8C2F90E4D99F800D112460E015
S11301E080680E947F00DF91CF9108950F931F9341
S11301F0CF93DF93EC010CC00E948E008111FCCFE1
S11302008E010F5F1F4F61E088810E947F00E8012B
S113021088818111F1CFDF91CF911F910F910895C2
S11302200E945D0187E690E00E9481010E94960091
S11302300E94D90084E00E94CC0080E00E94BF00AC
S113024060E080E00E94E20080E091E00E94F6001D
S113025060E081E00E94E2008EE091E00E94F600FE
S11302608CE191E00E94920108E810E081E690E0C0
S1130270F80191838083CAE8D0E0998388830E943F
S113028071018CE391E0F8019183808399838883E1
S11302900E94710189EA91E0F80191838083998336
S11302A088830E94710187E192E0F8019183808341
S11302B0998388830E947101D3CFE0E8F0E08081C4
S11302C0826A8083E1E8F0E080818B61808387E843
S11302D093E1909387008093860084B1866084B90B
S11302E0089520E00BC080E090E0FC013197F1F725
S11302F0FC013197F1F70197F1F72F5F223398F35F
S113030008958093C4009093C500E1ECF0E08081EF
S11303108861808308959091C00095FFFCCF8093FD
S1130320C6000895CF93DF93EC0103C021960E9489
S11303308B0188818111FACFDF91CF910895F894D0
S1050340FFCFE9
S113034256766564697465206E6F6D657200746FAC
S1130352766172612028312D3130290048656C6C38
S10B03626F2C2054304E4900B9
S9030000FC
