:100000000C9434000C9449000C9449000C94490061
:100010000C9449000C9449000C9449000C9449003C
:100020000C9449000C9449000C9449000C9449002C
:100030000C9449000C9449000C9441010C94490023
:100040000C9449000C9449000C9449000C9449000C
:100050000C9449000C9449000C9449000C944900FC
:100060000C9449000C94490011241FBECFEFD8E036
:10007000DEBFCDBF11E0A0E0B1E0E8EAF4E002C0ED
:1000800005900D92AC34B107D9F70E9493010C94FE
:1000900052020C940000FC0161E070E006C09D3249
:1000A00019F4719561957109319690819D32B9F37A
:1000B0009B32A9F320E030E012C0A901440F551F84
:1000C000220F331F220F331F220F331F420F531FE4
:1000D000292F30E020533109240F351F31969081AC
:1000E00040ED490F4A3048F3269FC001279F900DED
:1000F000369F900D112408959AB1906E9AB994B1DB
:10010000996394B99BB19F7B9BB9662321F09BB106
:1001100090689BB903C09BB19F779BB99BB19062DC
:100120009BB995B1967C95B983FF03C095B1906258
:1001300095B982FF03C095B1906195B981FF03C065
:1001400095B1986095B980FF03C085B1816085B98C
:100150008AE18A95F1F700C08BB18F7D8BB9089544
:10016000CF93DF93C82FD62F82958F700E947C008B
:100170006D2F8C2F0E947C00DF91CF9108958FE925
:100180009FE00197F1F700C0000080E008950E9411
:10019000BF008111FCCF60E082E00E947C000E94E1
:1001A000BF008111FCCF60E088E20E94B0000E9495
:1001B000BF008111FCCF60E081E00E94B0000E948E
:1001C000BF008111FCCF60E086E00E94B0000E9479
:1001D000BF008111FCCF60E08CE00E94B000089568
:1001E000CF93C82F0E94BF008111FCCF60E08C2FFD
:1001F0008C600E94B000CF910895CF93C82F0E94C9
:10020000BF008111FCCF60E08C2F88600E94B0009D
:10021000CF9108950E94BF008111FCCF60E081E082
:100220000E94B0000895CF93DF93D82FC62F0E946D
:10023000BF008111FCCF8C2F90E4D99F800D112439
:1002400060E080680E94B000DF91CF9108950F9325
:100250001F93CF93DF93EC010CC00E94BF0081116C
:10026000FCCF8E010F5F1F4F61E088810E94B000BC
:10027000E80188818111F1CFDF91CF911F910F911A
:1002800008951F920F920FB60F9211240F931F9390
:100290002F933F934F935F936F937F938F939F938E
:1002A000AF93BF93CF93DF93EF93FF9308E810E0F2
:1002B00081E690E0F80191838083CAE8D0E09983D9
:1002C00088830E9400028CE391E0F801918380838F
:1002D000998388830E94000289EA91E0F801918362
:1002E0008083998388830E94000287E192E0F8016D
:1002F00091838083998388830E940002FF91EF910C
:10030000DF91CF91BF91AF919F918F917F916F912D
:100310005F914F913F912F911F910F910F900FBEC1
:100320000F901F901895CF93DF9300D0CDB7DEB715
:1003300081E0809300010E94EC0187E690E00E943A
:1003400010020E94C7000E940A0184E00E94FD0082
:1003500080E00E94F00060E080E00E94130181E0F4
:1003600091E00E94270160E081E00E9413018FE08C
:1003700091E00E9427018AB18AB98BB18C608BB958
:1003800080910001882359F08DE191E00E942102C3
:1003900062E0CE0101960E94350210920001CE016A
:1003A00001960E944B00019751F40E940A0160E0FF
:1003B00080E00E94130181E391E00E9427014A99A5
:1003C00004C08EE391E00E94210281E690E09093C8
:1003D0008B0080938A00F3CFE0E8F0E08081826AAE
:1003E0008083E1E8F0E080818B61808387E893E19E
:1003F000909387008093860084B1866084B90895C5
:1004000020E00BC080E090E0FC013197F1F7FC01A7
:100410003197F1F70197F1F72F5F223398F30895A1
:100420008093C4009093C500E1ECF0E08081886186
:10043000808308959091C00095FFFCCF8093C60003
:100440000895CF93DF93EC0103C021960E941A0216
:1004500088818111FACFDF91CF9108958091C000FA
:100460008823E4F78091C60008950F931F93CF93DC
:10047000DF938C01D62FC0E00E942E0291E09C0FEA
:10048000F801EC0FF11D80839D1718F4C92F8D30F2
:1004900099F7F801E90FF11D1082DF91CF911F91BB
:0804A0000F910895F894FFCFBD
:1004A8000156766564697465206E6F6D65720074B7
:1004B8006F766172612028312D313029004E6F6DC1
:1004C800657220746F7661726128312D3130293A56
:1004D8000053746F697420363520727562004B6E54
:0C04E8006F706B61206E616761746100D1
:00000001FF
