:100000000C9434000C9451000C9451000C94510049
:100010000C9451000C9451000C9451000C9451001C
:100020000C9451000C9451000C9451000C9451000C
:100030000C9451000C9451000C9462020C945100E9
:100040000C9451000C9451000C9451000C945100EC
:100050000C9451000C9451000C9451000C945100DC
:100060000C9451000C94510011241FBECFEFD8E026
:10007000DEBFCDBF11E0A0E0B1E0EEEFF8E002C0DE
:1000800005900D92A636B107D9F721E0A6E6B1E0BA
:1000900001C01D92A237B207E1F70E94C2010C9481
:1000A0007D040C940000FC0161E070E006C09D320C
:1000B00019F4719561957109319690819D32B9F36A
:1000C0009B32A9F320E030E012C0A901440F551F74
:1000D000220F331F220F331F220F331F420F531FD4
:1000E000292F30E020533109240F351F319690819C
:1000F00040ED490F4A3048F3269FC001279F900DDD
:10010000369F900D11240895CF92DF92EF92FF92C7
:100110000F931F93CF93DF93CDB7DEB78C01EDB66E
:10012000FEB620E030E007C02F5F3F4F6AE070E08E
:100130000E943403CB010097B9F78DB79EB7821B9D
:10014000930B0FB6F8949EBF0FBE8DBFADB7BEB771
:1001500011966D01C9010E945C03FC0120E030E0B2
:100160000EC02F5F3F4FC8016AE070E00E94340369
:10017000D601A20FB31F805D8C93062F172F011598
:10018000110579F780E090E00CC0AF01480F591FCE
:10019000D901A81BB90BAC0DBD1D6C91DA016C9394
:1001A0000196821793078CF3DF01A80FB91F1C92E9
:1001B000CF010FB6F894FEBE0FBEEDBEDF91CF911A
:1001C0001F910F91FF90EF90DF90CF9008959AB11B
:1001D000906E9AB994B1996394B99BB19F7B9BB986
:1001E000662321F09BB190689BB903C09BB19F77B8
:1001F0009BB99BB190629BB995B1967C95B983FFF1
:1002000003C095B1906295B982FF03C095B190612A
:1002100095B981FF03C095B1986095B980FF03C07F
:1002200085B1816085B98AE18A95F1F700C08BB10B
:100230008F7D8BB90895CF93DF93C82FD62F8295EA
:100240008F700E94E7006D2F8C2F0E94E700DF91D6
:10025000CF9108958FE99FE00197F1F700C000006A
:1002600080E008950E942A018111FCCF60E082E0C5
:100270000E94E7000E942A018111FCCF60E088E221
:100280000E941B010E942A018111FCCF60E081E0E5
:100290000E941B010E942A018111FCCF60E086E0D0
:1002A0000E941B010E942A018111FCCF60E08CE0BA
:1002B0000E941B010895CF93C82F0E942A0181112B
:1002C000FCCF60E08C2F8C600E941B01CF910895C1
:1002D000CF93C82F0E942A018111FCCF60E08C2FA0
:1002E00088600E941B01CF9108950E942A0181110C
:1002F000FCCF60E081E00E941B010895CF93DF9363
:10030000D82FC62F0E942A018111FCCF8C2F90E498
:10031000D99F800D112460E080680E941B01DF914D
:10032000CF9108950F931F93CF93DF93EC010CC0EF
:100330000E942A018111FCCF8E010F5F1F4F61E0E7
:1003400088810E941B01E80188818111F1CFDF9132
:10035000CF911F910F9108950F931F93CF93DF9328
:100360008C01EB01209711F40E94750160E08C2F45
:100370000E947E01C8010E949201DF91CF911F91DE
:100380000F9108950E94CE0287E690E00E94F2024B
:100390000E9432010E94750184E00E94680180E0A1
:1003A0000E945B0160E070E089E091E00E94AC0196
:1003B00061E070E087E191E00E94AC018AB18AB906
:1003C0008BB18C608BB987B187B988B18F6088B9E0
:1003D00082E084BD95E095BD16BC91E097BD809309
:1003E0006E0078948091660190916701892BD1F716
:1003F00085E291E00E94030362E08CE691E00E94B6
:1004000017038CE691E00E9453009093670180935C
:10041000660181E080930601E5CF1AC0309912C0D1
:1004200020910801222359F001969093690180934D
:1004300068010E94840061E070E00E94AC011092AB
:10044000080103C081E08093080186B186B186B1BE
:10045000809168019091690120916A0130916B014E
:1004600082179307D8F208954B99FECF08954A99C1
:1004700028C080910701882309F10E940D02809114
:10048000660190916701019741F48CE391E09093AC
:100490008B0080938A000E94E2020E94340260E096
:1004A00070E089E391E00E94AC0160E070E084E4D8
:1004B00091E00E94AC0110920701089581E08093C1
:1004C000070108951F920F920FB60F9211242F93D8
:1004D0003F934F935F936F937F938F939F93AF93CC
:1004E000BF93EF93FF938CE691E00E9453009093AB
:1004F00067018093660181309105E9F480910601DE
:10050000882361F060E070E08DE491E00E94AC012E
:1005100085E090E090936B0180936A010E9437021E
:100520001092060110926701109266011092690103
:100530001092680122C00297E9F480910601882395
:1005400061F060E070E089E591E00E94AC0182E03A
:1005500090E090936B0180936A010E9437021092A1
:1005600006011092670110926601109269011092C3
:10057000680103C081E080930601FF91EF91BF9174
:10058000AF919F918F917F916F915F914F913F912B
:100590002F910F900FBE0F901F901895E0E8F0E09C
:1005A0008081826A8083E1E8F0E080818B618083D2
:1005B00087E893E1909387008093860084B18660FA
:1005C00084B9089520E00BC080E090E0FC013197F1
:1005D000F1F7FC013197F1F70197F1F72F5F223323
:1005E00098F308958093C4009093C500E1ECF0E087
:1005F00080818861808308959091C00095FFFCCF31
:100600008093C6000895CF93DF93EC0103C0219639
:100610000E94FC0288818111FACFDF91CF91089569
:100620008091C0008823E4F78091C60008950F935D
:100630001F93CF93DF938C01D62FC0E00E9410034D
:1006400091E09C0FF801EC0FF11D80839D1718F4C9
:10065000C92F8D3099F7F801E90FF11D1082DF9154
:10066000CF911F910F91089597FB072E16F40094D8
:1006700007D077FD09D00E94480307FC05D03EF45F
:10068000909581959F4F0895709561957F4F08953E
:10069000AA1BBB1B51E107C0AA1FBB1FA617B707A8
:1006A00010F0A61BB70B881F991F5A95A9F78095C4
:1006B0009095BC01CD0108950F931F93CF93DF93C5
:1006C0008230910510F482E090E0E0917001F091A9
:1006D000710120E030E0A0E0B0E0309719F14081F6
:1006E00051810281138148175907C8F08417950773
:1006F00069F4109731F012960C93129713961C938D
:1007000027C0009370011093710122C0211531059B
:1007100019F04217530718F49A01BD01EF01DF01E8
:10072000F801DBCF21153105F9F0281B390B2430F6
:10073000310580F48A819B816115710521F0FB01EF
:100740009383828304C09093710180937001FE01B2
:10075000329644C0FE01E20FF31F81939193225021
:100760003109398328833AC020916E0130916F019D
:10077000232B41F4209102013091030130936F014A
:1007800020936E0120910001309101012115310566
:1007900041F42DB73EB74091040150910501241B4F
:1007A000350BE0916E01F0916F01E217F307A0F4B1
:1007B0002E1B3F0B2817390778F0AC014E5F5F4FB7
:1007C0002417350748F04E0F5F1F50936F01409379
:1007D0006E018193919302C0E0E0F0E0CF01DF91E0
:1007E000CF911F910F910895CF93DF93009709F454
:1007F00081C0FC01329713821282A0917001B091E6
:100800007101109781F420813181820F931F209113
:100810006E0130916F012817390751F5F0936F0180
:10082000E0936E0167C0ED0120E030E0CE17DF07F6
:1008300040F44A815B819E0141155105F1F0EA01C6
:10084000F5CFD383C28340815181840F951FC81790
:10085000D90759F488819981840F951F0296918355
:1008600080838A819B81938382832115310529F4BA
:10087000F0937101E09370013DC0E901FB83EA83CD
:1008800049915991C40FD51FEC17FD0761F4808180
:100890009181840F951F0296E90199838883828153
:1008A00093819B838A83E0E0F0E012968D919C9186
:1008B0001397009719F0FD01DC01F7CF8D919C9102
:1008C00011979D012E5F3F4F820F931F20916E0164
:1008D00030916F012817390769F4309729F4109285
:1008E00071011092700102C013821282B0936F01E5
:0E08F000A0936E01DF91CF910895F894FFCF91
:1008FE00000072012000010101567665646974657D
:10090E00206E6F6D657200746F7661726120283192
:10091E002D313029004E6F6D657220746F766172C5
:10092E006128312D3130293A005370617369626F3D
:10093E00207A6100706F6B75706B75210053746F48
:10094E0069742035207275620053746F6974203299
:06095E002072756200002A
:00000001FF
