S00F000056656E64696E672E737265634A
S11300000C9434000C9451000C9451000C94510045
S11300100C9451000C9451000C9451000C94510018
S11300200C9451000C9451000C9451000C94510008
S11300300C9451000C9451000C94C2010C94510086
S11300400C9451000C9451000C9451000C945100E8
S11300500C9451000C9451000C9451000C945100D8
S11300600C9451000C94510011241FBECFEFD8E022
S1130070DEBFCDBF11E0A0E0B1E0E6EFF8E002C0E2
S113008005900D92A236B107D9F721E0A2E6B1E0BE
S113009001C01D92AC36B207E1F70E9461020C94D4
S11300A079040C940000FC0161E070E006C09D320C
S11300B019F4719561957109319690819D32B9F366
S11300C09B32A9F320E030E012C0A901440F551F70
S11300D0220F331F220F331F220F331F420F531FD0
S11300E0292F30E020533109240F351F3196908198
S11300F040ED490F4A3048F3269FC001279F900DD9
S1130100369F900D11240895CF92DF92EF92FF92C3
S11301100F931F93CF93DF93CDB7DEB78C01EDB66A
S1130120FEB620E030E007C02F5F3F4F6AE070E08A
S11301300E943003CB010097B9F78DB79EB7821B9D
S1130140930B0FB6F8949EBF0FBE8DBFADB7BEB76D
S113015011966D01C9010E945803FC0120E030E0B2
S11301600EC02F5F3F4FC8016AE070E00E94300369
S1130170D601A20FB31F805D8C93062F172F011594
S1130180110579F780E090E00CC0AF01480F591FCA
S1130190D901A81BB90BAC0DBD1D6C91DA016C9390
S11301A00196821793078CF3DF01A80FB91F1C92E5
S11301B0CF010FB6F894FEBE0FBEEDBEDF91CF9116
S11301C01F910F91FF90EF90DF90CF9008959AB117
S11301D0906E9AB994B1996394B99BB19F7B9BB982
S11301E0662321F09BB190689BB903C09BB19F77B4
S11301F09BB99BB190629BB995B1967C95B983FFED
S113020003C095B1906295B982FF03C095B1906126
S113021095B981FF03C095B1986095B980FF03C07B
S113022085B1816085B98AE18A95F1F700C08BB107
S11302308F7D8BB90895CF93DF93C82FD62F8295E6
S11302408F700E94E7006D2F8C2F0E94E700DF91D2
S1130250CF9108958FE99FE00197F1F700C0000066
S113026080E008950E942A018111FCCF60E082E0C1
S11302700E94E7000E942A018111FCCF60E088E21D
S11302800E941B010E942A018111FCCF60E081E0E1
S11302900E941B010E942A018111FCCF60E086E0CC
S11302A00E941B010E942A018111FCCF60E08CE0B6
S11302B00E941B010895CF93C82F0E942A01811127
S11302C0FCCF60E08C2F8C600E941B01CF910895BD
S11302D0CF93C82F0E942A018111FCCF60E08C2F9C
S11302E088600E941B01CF9108950E942A01811108
S11302F0FCCF60E081E00E941B010895CF93DF935F
S1130300D82FC62F0E942A018111FCCF8C2F90E494
S1130310D99F800D112460E080680E941B01DF9149
S1130320CF9108950F931F93CF93DF93EC010CC0EB
S11303300E942A018111FCCF8E010F5F1F4F61E0E3
S113034088810E941B01E80188818111F1CFDF912E
S1130350CF911F910F9108950F931F93CF93DF9324
S11303608C01EB01209711F40E94750160E08C2F41
S11303700E947E01C8010E949201DF91CF911F91DA
S11303800F9108951F920F920FB60F9211240F939D
S11303901F932F933F934F935F936F937F938F9309
S11303A09F93AF93BF93CF93DF93EF93FF9308E8AB
S11303B010E081E690E0F80191838083CAE8D0E000
S11303C0998388830E94DE028CE391E0F801918393
S11303D08083998388830E94DE0289EA91E0F80190
S11303E091838083998388830E94DE0287E192E06F
S11303F0F80191838083998388830E94DE02FF91B0
S1130400EF91DF91CF91BF91AF919F918F917F91A8
S11304106F915F914F913F912F911F910F910F9089
S11304200FBE0F901F90189517C0309912C02091DD
S11304300801222359F00196909365018093640189
S11304400E94840060E070E00E94AC0110920801F8
S113045003C081E08093080180916401909165015B
S1130460209166013091670182179307F0F2089595
S11304704B99FECF0895CF93DF934A991FC02091E3
S113048007012223C1F0EC010E941402219741F4D8
S11304908CE391E090938B0080938A000E94DE02AB
S11304A00E94380260E070E089E091E00E94AC01B3
S11304B01092070103C081E080930701DF91CF917F
S11304C00895CF93DF9300D0CDB7DEB70E94CA0260
S11304D087E690E00E94EE020E9432010E947501BC
S11304E084E00E94680180E00E945B0160E070E0AB
S11304F089E191E00E94AC0161E070E087E291E063
S11305000E94AC018AB18AB98BB18C608BB987B176
S113051087B988B1816088B9809162019091630143
S1130520892B49F485E391E00E94FF0262E0CE0149
S113053001960E941303CE0101960E9453009093EA
S113054063018093620181309105B9F480910601C1
S1130550882361F060E070E089E491E00E94AC01DE
S113056085E090E0909367018093660181E090E0DC
S11305700E943B0210920601CFCF029739F460E04B
S113058070E085E591E00E94AC01C6CF81E08093E4
S11305900601C2CFE0E8F0E08081826A8083E1E86E
S11305A0F0E080818B61808387E893E190938700FA
S11305B08093860084B1866084B9089520E00BC0DE
S11305C080E090E0FC013197F1F7FC013197F1F7FD
S11305D00197F1F72F5F223398F308958093C400B5
S11305E09093C500E1ECF0E08081886180830895F8
S11305F09091C00095FFFCCF8093C6000895CF93DF
S1130600DF93EC0103C021960E94F80288818111D6
S1130610FACFDF91CF9108958091C0008823E4F749
S11306208091C60008950F931F93CF93DF938C019D
S1130630D62FC0E00E940C0391E09C0FF801EC0F50
S1130640F11D80839D1718F4C92F8D3099F7F80197
S1130650E90FF11D1082DF91CF911F910F91089541
S113066097FB072E16F4009407D077FD09D00E945B
S1130670440307FC05D03EF4909581959F4F08955F
S1130680709561957F4F0895AA1BBB1B51E107C06C
S1130690AA1FBB1FA617B70710F0A61BB70B881F0E
S11306A0991F5A95A9F780959095BC01CD0108959D
S11306B00F931F93CF93DF938230910510F482E060
S11306C090E0E0916A01F0916B0120E030E0A0E05D
S11306D0B0E0309719F140815181028113814817AC
S11306E05907C8F08417950769F4109731F01296EA
S11306F00C93129713961C9327C000936A011093CE
S11307006B0122C02115310519F04217530718F463
S11307109A01BD01EF01DF01F801DBCF211531059D
S1130720F9F0281B390B2430310580F48A819B8130
S11307306115710521F0FB019383828304C09093BA
S11307406B0180936A01FE01329644C0FE01E20F00
S1130750F31F8193919322503109398328833AC03E
S11307602091680130916901232B41F42091020109
S113077030910301309369012093680120910001B5
S1130780309101012115310541F42DB73EB7409157
S1130790040150910501241B350BE0916801F0918F
S11307A06901E217F307A0F42E1B3F0B2817390742
S11307B078F0AC014E5F5F4F2417350748F04E0FB9
S11307C05F1F50936901409368018193919302C024
S11307D0E0E0F0E0CF01DF91CF911F910F910895F8
S11307E0CF93DF93009709F481C0FC013297138201
S11307F01282A0916A01B0916B01109781F420815B
S11308003181820F931F209168013091690128176B
S1130810390751F5F0936901E093680167C0ED0170
S113082020E030E0CE17DF0740F44A815B819E016F
S113083041155105F1F0EA01F5CFD383C28340811C
S11308405181840F951FC817D90759F4888199815C
S1130850840F951F0296918380838A819B81938361
S113086082832115310529F4F0936B01E0936A0129
S11308703DC0E901FB83EA8349915991C40FD51F17
S1130880EC17FD0761F480819181840F951F029616
S1130890E90199838883828193819B838A83E0E041
S11308A0F0E012968D919C911397009719F0FD0139
S11308B0DC01F7CF8D919C9111979D012E5F3F4FE5
S11308C0820F931F2091680130916901281739071D
S11308D069F4309729F410926B0110926A0102C0F6
S11308E013821282B0936901A0936801DF91CF91C2
S10908F00895F894FFCF07
S11308F600006C012000010101476F6F64206C75D4
S1130906636B2C20626F7921005676656469746581
S1130916206E6F6D657200746F7661726120283186
S11309262D313029004E6F6D657220746F766172B9
S11309366128312D3130293A0053746F697420359A
S1130946207275620053746F697420322072756266
S105095600009B
S9030000FC
